:020000000C29C9
:10000800FF00030E8301A7000A08A8008A018B1CC1
:10001800132821080130031D0030A1008B10280887
:0C0028008A00270E8300FF0E7F0E0900E7
:1000340083120313F8010830FC00700DF80D7408E6
:10004400F80203182728F8070310F00DFC0B1F28EB
:020054000800A2
:100056000A3083120313F4002C08F0001A207008EB
:10006600AD000A30F4002C08F0001A207808F000E1
:10007600E1300605F4000F302D05F3007308F1009A
:10008600F10D7110710874048600F0300705F10057
:0C0096000F30F0057008710487000800AE
:1000A2000A3083120313F4002C08F0001A2070089F
:1000B200AD000A30F4002C08F0001A207808F00095
:1000C2000F300705F4000F302D05F3007308F1001F
:1000D200F10D7110F10D7110F10D7110F10D711022
:1000E200710874048700F0300805F1000F30F00544
:0800F200700871048800080089
:1000FA00831203132A08AC002B202B08AC005120D2
:02010A000800EB
:10010C008312031386120617861308168812081317
:06011C000130A200080002
:10012200033083120313A9002908003C0318B328E3
:100132002908AA002908AB007D200B30FB002630DD
:10014200FC005D30FD00FD0BA428FC0BA428FB0B7A
:10015200A428000000002108003A031DB128B62897
:0C016200A9039528AA01AB017D2008002C
:0E016E008312031324088A002308820008006D
:10017C0083120313861606138613081288120817A7
:0A018C000130A0000230A2000800BC
:10019600831203138616061386130812881608138D
:0601A6000330A200080076
:1001AC008312031386120613861708168812081377
:0601BC00A001A2010800F1
:1001C200E13083120313860500308705F03088057D
:0201D200080023
:1001D400831203132008003A031DF8288620912077
:1001E4002108013A031DF728BE20FF28CB209120C7
:0C01F4002108013A031DFF28D620080056
:10020000B7208A110A128000840AA30A0319A40ADB
:08021000F003031D00290800A2
:1002180083120313A001A101A201063083169F00D7
:1002280085010130860087018801891483128501C0
:1002380086018701880105148514051585158B1716
:100248000B16831601138B108312A001A201D6206E
:10025800E120003089180130A6002108013A031D69
:100268006329E120003089180130A6002108013AED
:10027800031D6229E1202608013A031D5429891823
:100288005429EA208918492946298230FC00DD30A2
:10029800FD00FD0B4D29FC0B4D2900000000E1205D
:1002A800003089180130A6001A30FC00F830FD0033
:1002B800FD0B5C29FC0B5C2900003A29152AA001DA
:1002C800D6201430A5002508003C031885292108EC
:1002D800003A031D85292508AA0003302507AB002D
:1002E8007D200B30FB002630FC005D30FD00FD0B4F
:1002F8007B29FC0B7B29FB0B7B2900000000A50355
:1003080067292108003A031D8D29AA010330AB0093
:100318007D202108013A031D9229312986200330C6
:10032800A5002508003C0318B2292108003A031D3E
:10033800B2292508AA002508AB007D200B30FB0058
:100348002630FC005D30FD00FD0BA829FC0BA82918
:10035800FB0BA82900000000A50395292108003AF5
:10036800031DB929AA01AB017D202108013A031D0B
:10037800BE2931290130A000BE200C30A500250877
:10038800003C0318E1292108003A031DE129033044
:100398002507AA002508AB007D200B30FB0026307E
:1003A800FC005D30FD00FD0BD729FC0BD729FB0BAA
:1003B800D72900000000A503C3292108003A031D1E
:1003C800E9290330AA00AB017D202108013A031D69
:1003D800EE293129CB200330A5002508003C03185D
:1003E8000E2A2108003A031D0E2A2508AA0025080E
:1003F800AB007D200B30FB002630FC005D30FD009B
:10040800FD0B042AFC0B042AFB0B042A0000000045
:10041800A503F1292108003A031D152AAA01AB01F9
:060428007D203129162A97
:02400E004A2F37
:00000001FF
